:020000040800F2
:1000000000200020B9000008490200084F02000843
:1000100000000000000000000000000000000000E0
:10002000000000000000000000000000490200087D
:10003000000000000000000049020008490200081A
:100040004902000849020008490200084902000864
:100050004902000849020008490200084902000854
:100060000000000049020008490200084902000897
:100070004902000849020008000000008915000834
:10008000000000004902000800000000000000001D
:100090004902000800000000490200084902000867
:1000A0004902000849020008490200084902000804
:1000B000490200084902000800F042F800F004F884
:1000C00000F05AFEFEE7000080B582B000AF164B8C
:1000D0007B60164B3B6007E07A68131D7B603B68D2
:1000E000191D396012681A603A68114B9A42F3D3AD
:1000F00004E03B681A1D3A6000221A603A680D4B12
:100100009A42F6D30C4B3B6004E03B681A1D3A6000
:100110001B6898473A68094B9A42F6D3C046C046D6
:10012000BD4602B080BDC046C031000800000020BE
:100130001C0000203C000020C0310008C031000835
:1001400080B500AF3B4B1A683A4B01210A431A6055
:10015000C046384B1B6804221340FAD0354B0122AD
:10016000DA60C046334BDB680C221340042BF9D114
:10017000314B1A68304B02210A431A602E4B1A6821
:100180002D4B01210A431A602A4B9A6B294B80217F
:1001900049050A439A63294B802212011A60C0461E
:1001A000264B5B6810221340FAD1224BDA68214BB0
:1001B00023490A40DA601F4BDA681E4B8821C903C5
:1001C0000A43DA601B4A1B4BD268DA60194A194BA2
:1001D000D268DA60174A174BD268DA60154B1A6892
:1001E000144B18490A401A60124B1A68114B8021AF
:1001F00049040A431A60C0460E4B1A6880239B04C8
:100200001340F9D00B4BDA680A4B03218A43DA60BA
:10021000084BDA68074B03210A43DA60C046054BF6
:10022000DB680C2213400C2BF9D1C046C046BD46FA
:1002300080BDC04600100240002002400070004017
:10024000FFFF02FFFFFFFFFE80B500AFFEE780B5B6
:1002500000AFFEE780B500AF2A4BDA6A294B0321D5
:100260000A43DA62A023DB051A68A023DB05032119
:100270000A431A60A023DB05DA68A023DB0503210B
:100280008A43DA60204B1A681F4B03210A431A6025
:100290001D4BDA681C4B03218A43DA601A4B1A683B
:1002A000194B0C210A431A60174BDA68164B0C21C4
:1002B0008A43DA60144B1A68134BC0218A431A60D0
:1002C000114BDB68C02293431A000F4B40210A43B5
:1002D000DA600D4B1B680D4A1A400B4B8021C90098
:1002E0000A431A60084B5A68074B20218A435A6018
:1002F000054B5A69044B20218A435A61C046BD46CA
:1003000080BDC0460010024000040050FFF3FFFF14
:1003100080B500AF134B5A6B124B802189000A4302
:100320005A63114B9A68104B802109060A439A6060
:10033000C0460D4B9B68002BFBDB0B4B9A680A4BAE
:1003400001210A439A60C046074B1B6801221340F3
:10035000FAD0054B5A69044B07210A435A61C0463B
:10036000BD4680BD001002400024014080B582B02F
:1003700000AF0200FB1D1A70FB1D1A780B4B012108
:1003800091400A009A62094B9A68084B04210A437B
:100390009A60C046054B1B6804221340FAD0034BF9
:1003A0001B6C9BB21800BD4602B080BD002401400A
:1003B00080B584B000AF78607B685B01FB60FB6850
:1003C000002B1AD0FA6880235B049A4201D30D4BAC
:1003D000FB600D4BFA685A600B4BFA689A600A4B47
:1003E00005221A60C046084B1A6880235B0213403E
:1003F000F9D0054B00221A6000E0C046BD4604B0AB
:1004000080BDC046FFFFFF0010E000E080B584B073
:1004100000AF78600023FB6007E0FA239B00180020
:10042000FFF7C6FFFB680133FB60FA687B689A42FE
:10043000F3D3C046C046BD4604B080BD80B500AF12
:10044000214BDA6A204B02210A43DA621E4B9A6B77
:100450001D4B802189030A439A631C4B1B681C4A6D
:100460001A401A4B802189010A431A60174B1B6AF4
:10047000184A1A40154B802149040A431A62134B4B
:100480001B68154A1A40114B802109020A431A6061
:100490000E4B1B6A1B011A090C4B802149050A43AC
:1004A0001A620A4B5A68094BC0210A435A60074B2B
:1004B0009A68064BA021C9010A439A60074B084A73
:1004C0001A61C046BD4680BD0010024000040050C5
:1004D000FFCFFFFFFFFFFFF0FF3FFFFF0054004093
:1004E000130F427080B582B000AF02003960FB1D6F
:1004F0001A70234B01221A60214B224A5A60204B6A
:100500005A681F4B802189010A435A60C0461C4B20
:100510009B6901221340012BF9D1194BFA1D127866
:100520009A62C046164B9B6901221340012BF9D1F8
:10053000FA239B001800FFF73BFF114B05221A60BE
:100540000F4B114A5A600E4B5A680D4B802189019E
:100550000A435A60C0460A4B9B6904221340042B8D
:10056000F9D1074B5B6ADAB23B681A70FA239B0039
:100570001800FFF71DFF01231800BD4602B080BD23
:1005800000540040520001025204010280B582B0C2
:1005900000AF02003960FB1D1A702C4B01221A605B
:1005A0002A4B2B4A5A60294B5A68284B80218901D3
:1005B0000A435A60C046254B9B6901221340012B18
:1005C000F9D1224BFA1D12789A62C0461F4B9B69E3
:1005D00001221340012BF9D1FA239B001800FFF7E9
:1005E000E7FE1A4B05221A60184B1A4A5A60174B3D
:1005F0005A68164B802189010A435A60C046134B42
:100600009B6904221340042BF9D1104B5B6A9BB207
:100610001B029AB23B681A80C0460C4B9B690422AD
:100620001340042BF9D1094B596A3B681A888BB2E5
:1006300013439AB23B681A80FA239B001800FFF715
:10064000B7FE01231800BD4602B080BD0054004033
:10065000520001025204020280B582B000AF0200D3
:10066000FB1D1A70BB1D0A1C1A701A4B01221A605E
:10067000184B194A5A60174B5A68164B802189014A
:100680000A435A60C046134B9B6901221340012B59
:10069000F9D1104BFA1D12789A62C0460D4B9B6936
:1006A00001221340012BF9D10A4BBA1D12789A622C
:1006B000C046084B9B6901221340012BF9D1FA2354
:1006C0009B001800FFF774FE01231800BD4602B01E
:1006D00080BDC046005400405200020280B500AF09
:1006E000094B1B78002B0BD1FFF7A8FE02F00EF888
:1006F000031E06D0044B01221A7002F075FA00E0C6
:10070000C046BD4680BDC0461D00002080B586B0F5
:1007100000AF786039607B68002B04D13B6818001B
:10072000FFF774FE33E079681A4802F001FB03001A
:100730003B617B683A685343FA229100180002F04B
:10074000F7FA0300FB6000237B6116E0124B5A6945
:10075000114B20210A435A613B691800FFF728FE1C
:100760000D4B5A690C4B20218A435A613B69180092
:10077000FFF71EFE7B6901337B617A69FB689A4251
:10078000E4D3054B5A69044B20218A435A61BD4684
:1007900006B080BD20A107000004005080B584B0E1
:1007A00000AF02003960FB1D1A700023FB603B683C
:1007B0000A21180002F0BCFA0300BB60FB1D1B7885
:1007C000002B1ED00BE00A20FFF7F2FDFB6801337F
:1007D000FB60FA68BB689A4201D9002317E00E4B10
:1007E0001B6908221340EED010E00A20FFF7E0FD5D
:1007F000FB680133FB60FA68BB689A4201D90023A9
:1008000005E0054B1B6908221340EED101231800B7
:10081000BD4604B080BDC0460004005080B582B023
:1008200000AFFB1D00221A70D3239B001800FFF7B6
:10083000BFFDBB1D00221A701EE0FB1DFA1D1278C1
:1008400052081A70114B1B690822134006D0FB1D79
:10085000FA1D1278802149420A431A70BB1D1B7889
:10086000062B04D8D0235B001800FFF7A1FDBB1DA9
:100870001A78BB1D01321A70BB1D1B78072BDCD9FF
:10088000FB1D1B781800BD4602B080BD000400505F
:10089000B0B586B000AFF860B9607A603B60FA230B
:1008A000DB0019000120FFF779FF031E01D10023AF
:1008B000BEE0614B19000020FFF770FF031E01D15D
:1008C0000023B5E017257C19FFF7A8FF030023706C
:1008D0007B191B78502B04D07B191B78612B00D01F
:1008E00072E0564B19000120FFF758FF031E01D19B
:1008F00000239DE0514B19000020FFF74FFF031E1E
:1009000001D1002394E01623FC18FFF787FF0300B2
:1009100023704A4B19000120FFF740FF031E01D14D
:10092000002385E0454B19000020FFF737FF031E29
:1009300001D100237CE01523FC18FFF76FFF0300B3
:1009400023703E4B19000120FFF728FF031E01D141
:1009500000236DE0394B19000020FFF71FFF031E35
:1009600001D1002364E014257C19FFF757FF030031
:1009700023701723FA181623FB1812781B78D31844
:10098000DAB21523FB181B78D318DAB27B191B785F
:10099000D318DBB2FF2B01D0002349E0FB681722FC
:1009A000BA1812781A70BB681622BA1812781A7020
:1009B0007B681522BA1812781A703B681422BA188C
:1009C00012781A70042333E01C4B19000120FFF742
:1009D000E5FE031E01D100232AE0184B1900002078
:1009E000FFF7DCFE031E01D1002321E016257C1950
:1009F000FFF714FF030023701723FA187B191278EE
:100A00001B78D318DBB2FF2B01D0002310E0FB686A
:100A10001722BA1812781A70BB681622BA18127800
:100A20001A707B6800221A703B6800221A70022339
:100A30001800BD4606B0B0BD204E0000881300006F
:100A400090B585B000AF040008001100FB1D221C0A
:100A50001A70BB1D021C1A707B1D0A1C1A70FB1D2C
:100A60001B78502B4ED1A34B1B78002B4AD1BB1DBA
:100A70001B785BB2002B01DA012201E001235A420C
:100A80009D4B1A607B1D1B785BB2002B01DA0122A3
:100A900001E001235A42994B1A60BB1D1B787F224B
:100AA0001A40974B1A607B1D1B787F221A40954B8A
:100AB0001A60934B1B68642B02DD914B64221A6011
:100AC000904B1B68642B02DD8E4B64221A608C4BAA
:100AD0001B68092B02DC8A4B00221A60894B1B68B9
:100AE000092B02DC874B00221A60854B1B68002B08
:100AF00000D0F7E0834B1B68002B00D0F2E000F041
:100B000031FCEFE0FB1D1B78622B00D9ECE09A0072
:100B10007D4BD3181B689F46794B00221A60794B96
:100B200000221A6000F01EFCE1E0734B01221A6003
:100B3000724B01221A60724B64221A60714B64225C
:100B40001A60D4E06C4B012252421A606B4B0122B6
:100B500052421A606A4B64221A606A4B64221A601D
:100B6000C5E0654B012252421A60644B01221A60B3
:100B7000634B64221A60634B64221A60B7E05E4BD9
:100B800001221A605D4B012252421A605C4B6422C2
:100B90001A605C4B64221A60A9E000F03DFDA6E0FB
:100BA0005A4B01221A70A2E0584B02221A709EE0A2
:100BB000564B03221A709AE0544B04221A7096E0A6
:100BC0004C4B1B78012B00D090E0514B01221A7046
:100BD0008CE04F4B00221A7089E00F23FB18002293
:100BE0001A700AE00F203B181B784A4A0121D154A1
:100BF0003B181A783B1801321A700F23FB181B7828
:100C0000072BEFD9FA23DB0064211800FFF77EFDE4
:100C10006420FFF7FBFBFA23DB0064211800FFF7D9
:100C200075FD64E03B4B180000F076FF3A4B9621CF
:100C30001800FFF76BFD6420FFF7E8FB364B9621A9
:100C40001800FFF763FD6420FFF7E0FB324B9621AD
:100C50001800FFF75BFD4AE0FFF740FD254B01223E
:100C60001A702E4B01221A7000F0E2FD01F0BCFF59
:100C70002B4B00221A70264B00221A70294B1B782E
:100C8000002B01D001F058FE1B4B01221A601B4BB8
:100C900001221A601A4B3C221A601A4B3C221A603D
:100CA00025E0144B00221A701C4B00221A701C4BBA
:100CB00000221A70164B00221A701A4B1B78002B58
:100CC00001D001F0ADFE0E4B00221A600D4B002248
:100CD0001A6000F047FB0AE00F4BC8211800FFF72D
:100CE00015FD04E0C04602E0C04600E0C046BD4637
:100CF00005B090BD1C0000200C000020100000205A
:100D0000280000202C0000201C30000800000020DB
:100D10002200002004000020C40900003000002050
:100D20001E0000201D00002080B582B000AF020030
:100D3000FB1D1A70BB1D0A1C1A70FB1D1B78072BAC
:100D40000FD8BB1D1B78032B0DD8FB1D1B78084A41
:100D5000B91D0978D154074B78211800FFF7D6FC4C
:100D600002E0C04600E0C046BD4602B080BDC046BD
:100D70000400002098080000F0B583B000AFFFF732
:100D800069FAFFF7C5FA00F05FFBC820FFF73EFBEA
:100D9000464B50211800FFF7B9FC5020FFF736FBF7
:100DA000FA23DB0050211800FFF7B0FCFC1DFB1CF0
:100DB0003A1D791DB81DFFF76BFD03002370FB1D65
:100DC0001B78042B26D1BB1D1B78612B18D1BB1DB2
:100DD0001A787B1D1B78D318DAB23B1D1B78D31809
:100DE000DAB2FB1C1B78D318DBB2FF2B1DD17B1DA5
:100DF0001A783B1D1B7819001000FFF795FF14E0CF
:100E0000BB1D18787B1D19783B1D1B781A00FFF756
:100E100017FE0AE0FB1D1B78022B06D1BB1D1B78B9
:100E2000002200211800FFF70BFE214B1B78012B3D
:100E3000BCD1204B1B78DBB2002BB7D01E4B1B78EC
:100E4000002B12D001F0ACFE031E0ED01B4B18007D
:100E500001F05AFE031E08D0184B1B88180001F041
:100E6000EBFE03001A00164B1A70154B1B78002B73
:100E700003D1144B1B78002B02D000F03BFE14E092
:100E8000114B1C780820FFF771FA03001D000920A0
:100E9000FFF76CFA03001E000020FFF767FA03005B
:100EA00032002900200000F0D3FC7FE7DC050000C1
:100EB0001C000020300000201D0000202000002029
:100EC0001E000020220000200000002080B582B01B
:100ED00000AF0200FB1D1A70FB1D1B7819001048A3
:100EE00001F0B0FF030019000E4801F0ABFF030052
:100EF0005A1E0D4B5A600C4B00229A600A4B052279
:100F00001A60C046084B1A6880235B021340F9D070
:100F1000054B00221A60C046BD4602B080BDC046E7
:100F200040420F000048E80110E000E080B584B0C6
:100F300000AF78600023FB6015E00B23FB18002254
:100F40001A7008E0FA20FFF7C1FF0B217B181A780E
:100F50007B1801321A700B23FB181B78032BF1D975
:100F6000FB680133FB60FA687B689A42E5D3C046B0
:100F7000C046BD4604B080BD80B500AFA023DB05F0
:100F80005A69A023DB0502210A435A612820FFF792
:100F90009DFFA023DB055A69A023DB0502218A43BC
:100FA0005A61C046BD4680BD80B582B000AF020028
:100FB000FB1D1A70FB1D1B785BB2002B08DAA02307
:100FC000DB055A69A023DB0520210A435A6107E0AB
:100FD000A023DB055A69A023DB0520218A435A613F
:100FE000FB1D1B784022134008D0A023DB055A6963
:100FF000A023DB0510210A435A6107E0A023DB058B
:101000005A69A023DB0510218A435A61FB1D1B7816
:101010002022134008D0A023DB055A69A023DB055A
:1010200008210A435A6107E0A023DB055A69A0237F
:10103000DB0508218A435A61FB1D1B7810221340EF
:1010400008D0A023DB055A69A023DB0504210A434D
:101050005A6107E0A023DB055A69A023DB050421C0
:101060008A435A61FFF788FF2820FFF72FFFFB1DF7
:101070001B780822134008D0A023DB055A69A0235F
:10108000DB0520210A435A6107E0A023DB055A69EA
:10109000A023DB0520218A435A61FB1D1B78042213
:1010A000134008D0A023DB055A69A023DB051021DB
:1010B0000A435A6107E0A023DB055A69A023DB0538
:1010C00010218A435A61FB1D1B780222134008D06D
:1010D000A023DB055A69A023DB0508210A435A61D6
:1010E00007E0A023DB055A69A023DB0508218A431A
:1010F0005A61FB1D1B780122134008D0A023DB0599
:101100005A69A023DB0504210A435A6107E0A023A2
:10111000DB055A69A023DB0504218A435A61FFF7E6
:101120002BFFC046BD4602B080BD80B582B000AF87
:101130000200FB1D1A70A023DB055A69A023DB0502
:1011400001210A435A61FB1D1B781800FFF72CFF91
:101150000220FFF7EBFEC046BD4602B080BD80B561
:1011600082B000AF0200FB1D1A70A023DB055A6994
:10117000A023DB0501218A435A61FB1D1B7818005F
:10118000FFF712FF0520FFF7D1FEC046BD4602B0B3
:1011900080BD80B500AFA023DB055A69A023DB0525
:1011A00002218A435A611420FFF7C0FE3320FFF763
:1011B000D6FF3320FFF7D3FF3220FFF7D0FF2820E0
:1011C000FFF7CDFF0C20FFF7CAFF0120FFF7C7FF95
:1011D0001420FFF7ABFEC046BD4680BD80B584B08D
:1011E00000AF786008001100FB1C021C1A70BB1CC9
:1011F0000A1C1A70FB1C1B78022B01D1C02300E0D3
:1012000080231800FFF7ABFF0520FFF78FFE0023B8
:10121000FB6009E0FB687A68D3181B781800FFF7B9
:1012200084FFFB680133FB60FB687A68D3181B7886
:10123000002BEFD1BB1C1B78002B09D005E0202030
:10124000FFF773FFFB680133FB60FB680F2BF6DDD4
:10125000C046BD4604B080BD80B500AFA023DB050D
:101260005A69A023DB0540210A435A61A023DB050C
:101270005A69A023DB0580218A435A61C046BD46D6
:1012800080BD80B500AFA023DB055A69A023DB0534
:1012900040218A435A61A023DB055A69A023DB055C
:1012A00080210A435A61C046BD4680BD80B500AF6B
:1012B000A023DB055A69A023DB05802149010A43ED
:1012C0005A61A023DB055A69A023DB0502490A40C5
:1012D0005A61C046BD4680BDFFF7FFFF80B500AF35
:1012E000A023DB055A69A023DB0507490A405A61A0
:1012F000A023DB055A69A023DB05802109010A43ED
:101300005A61C046BD4680BDFFEFFFFF80B500AF0C
:10131000A023DB055A69A023DB0540210A435A615B
:10132000A023DB055A69A023DB0580210A435A610B
:10133000C046BD4680BD80B500AFA023DB055A691D
:10134000A023DB05802109010A435A61A023DB05A4
:101350005A69A023DB05802149010A435A61C0462E
:10136000BD4680BD80B500AFFFF7D0FFFFF7E3FFBC
:10137000C046BD4680BD80B500AF1B4B9A6B1A4B73
:1013800001210A439A638023DB054022FF32DA629F
:10139000164B1A68154B802109020A431A608023F4
:1013A000DB051A688023DB0510210A431A608023BD
:1013B000DB051A688023DB0580210A431A6080233D
:1013C000DB05DA688023DB0501210A43DA6080232C
:1013D000DB051A688023DB0501210A431A6062B627
:1013E000C046C046BD4680BD0010024000E100E09E
:1013F00080B584B000AF7860FA23DB01BB600023C6
:10140000FB6016E00F4BBA68013A5A600D4B0022A0
:101410009A600C4B05221A60C0460A4B1A6880235A
:101420005B021340F9D0074B00221A60FB680133BE
:10143000FB60FA687B689A42E4D3C046C046BD466A
:1014400004B080BD10E000E080B500AF474BDA6A21
:10145000464B01210A43DA62A023DB051B68444A9C
:101460001A40A023DB05802149010A431A60A0230A
:10147000DB055A68A023DB0540218A435A60A0237C
:10148000DB051B683B4A1A40A023DB058021C9010C
:101490000A431A60A023DB055A68A023DB058021DC
:1014A0008A435A60A023DB051B68334A1A40A023F5
:1014B000DB058021C9030A431A60A023DB055A68B3
:1014C000A023DB052D490A405A60A023DB051B68D9
:1014D0002B4A1A40A023DB05802149040A431A60E5
:1014E000A023DB055A68A023DB0526490A405A6081
:1014F000A023DB051B680C2293431A00A023DB0505
:1015000004210A431A60A023DB055A68A023DB05E7
:1015100002218A435A60A023DB055A69A023DB0518
:1015200002218A435A61A023DB051B6830229343C2
:101530001A00A023DB0510210A431A60A023DB0553
:101540005A68A023DB0504218A435A60A023DB05E7
:101550005A69A023DB0504218A435A61FFF702FF81
:10156000FFF709FFC046BD4680BDC04600100240DF
:10157000FFCFFFFFFF3FFFFFFFFF3FFFFFF7FFFF33
:10158000FFFFFFFCFFEFFFFF80B500AF8023DB050F
:101590001A698023DB0501218A431A61194B1B68F4
:1015A0005A1C184B1A60184B1A68164B1B689A4243
:1015B00009DD164B1B68012B02D1FFF74DFE04E03D
:1015C000FFF75FFE01E0FFF7A1FE114B1A680D4B1C
:1015D0001B689A4209DD0F4B1B68012B02D1FFF7F4
:1015E00065FE04E0FFF77AFE01E0FFF7A4FE054B7D
:1015F0001B68632B02DD034B00221A60C046BD4608
:1016000080BDC04624000020280000200C000020DF
:101610002C0000201000002080B500AF0E4B0122EE
:1016200052421A600D4B01221A600D4B32221A6091
:101630000C4B32221A60AF231B011800FFF7D8FEB3
:10164000074B00221A60074B00221A60FFF78AFE40
:10165000C046BD4680BDC0460C00002010000020E2
:10166000280000202C00002080B500AFA023DB055F
:101670005A69A023DB0502210A435A61134B012258
:1016800052421A60124B01221A60124B32221A6027
:10169000114B32221A60114B1800FFF7A9FE0D4BB7
:1016A00000221A600C4B00221A60FFF75BFEC82074
:1016B000FFF79EFEA023DB055A69A023DB0502216C
:1016C0008A435A61C046BD4680BDC0460C0000201A
:1016D00010000020280000202C0000204C040000F6
:1016E00080B500AFA023DB055A69A023DB050421E8
:1016F0000A435A61134B01221A60134B01225242D2
:101700001A60124B32221A60114B32221A60114BAE
:101710001800FFF76DFE0D4B00221A600C4B0022E3
:101720001A60FFF71FFEC820FFF762FEA023DB054B
:101730005A69A023DB0504218A435A61C046BD468D
:1017400080BDC0460C0000201000002028000020B2
:101750002C0000204C04000080B500AFA023DB0566
:101760005A69A023DB0502218A435A61A023DB05C5
:101770005A69A023DB0504218A435A61C046BD464D
:1017800080BD80B582B000AF0200FB1D1A70FB1D4A
:101790001A780C4B012191400A009A62094B9A6811
:1017A000084B04210A439A60C046064B1B6804227A
:1017B0001340FAD0034B1B6C9BB21800BD4602B01D
:1017C00080BDC0460024014080B582B000AF020059
:1017D000FB1D1A70BB1D0A1C1A70BB1D1B78072B42
:1017E00001D903231BE0FB1D1B78042B04D1BB1D77
:1017F0001B780D4AD35C12E0FB1D1B78002B0DD02B
:10180000FB1D1B78032B09D8FB1D1B785A1EBB1D23
:101810001B780649D2008A18D35C00E00323180025
:10182000BD4602B080BDC04614000020A8310008AB
:1018300080B500AF044B00221A70044B00221A70CE
:10184000C046BD4680BDC0463100002032000020A9
:10185000B0B588B000AF05000C0010001900FB1DEA
:101860002A1C1A703B1D221C1A80BB1C021C1A80E9
:101870003B000A1C1A80BB1C1B889AB2642A00D247
:1018800064239AB20E23FB18643A1A803B001B882B
:10189000814A934200D88FE0804B1B78002B00D008
:1018A0008AE07E4B01221A7000233B6136E07C4BBC
:1018B0005A697B4B20210A435A617A4BC822520154
:1018C0005A60784B00229A60764B05221A60C04617
:1018D000744B1A6880235B021340F9D0714B0022CD
:1018E0001A606F4B5A696E4B20218A435A616D4BC7
:1018F000C82252015A606B4B00229A60694B052244
:101900001A60C046674B1A6880235B021340F9D007
:10191000644B00221A603B6901333B613B69C72B72
:10192000C5D9614B1B78072B0AD85F4B1A78FB1D72
:101930001B7811001800FFF747FF03001A0000E0B2
:1019400003220D243B191A70574B1B780133DAB26E
:10195000554B1A70554B00221A60554B00221A60E5
:10196000FFF700FDC820FFF743FD3B191B78032B51
:1019700011D014DC022B0BD011DC002B02D0012B78
:1019800003D00CE0FFF7E8FE09E0FFF76DFE06E08C
:10199000FFF7A6FE03E0474B00221A7079E0464BA2
:1019A00001221A60454B01221A60404B3C221A600A
:1019B0003F4B3C221A606CE03B001B88404A93423C
:1019C00002D8364B00221A703B1D1B883C4A9342BA
:1019D00012D80E23FB181B88394A93420CD8364B79
:1019E00001221A60354B01221A60304B3C221A60EA
:1019F0002F4B3C221A604CE03B1D1A880E23FB182B
:101A00001B88D31ABB60BB68962B02DCBB6896337D
:101A100016DABA6813009B009B18DB0029491800EE
:101A200001F010FA0300FB61FB69282B01DD28237C
:101A3000FB61FB69283305DA28235B42FB6101E087
:101A40000023FB61FB693C22D31ABB61FB693C3379
:101A50007B61BB69642B01DD6423BB61BB69002B27
:101A600001DA0023BB617B69642B01DD64237B61A8
:101A70007B69002B01DA00237B610F4B01221A6086
:101A80000E4B01221A60094BBA691A60084B7A6939
:101A90001A60BD4608B0B0BD8604000032000020C8
:101AA0000004005010E000E0310000202800002079
:101AB0002C000020300000200C000020100000202E
:101AC00085040000B608000080B500AF064B002278
:101AD0001A70064B00221A60054B00221A60FFF7AD
:101AE00041FCC046BD4680BD3000002028000020DB
:101AF0002C00002080B500AF054B00221A60054B7A
:101B000000221A60FFF72EFCC046BD4680BDC046CD
:101B1000280000202C00002080B584B000AF786041
:101B20000F23FB1800221A700EE00F203B181B78C1
:101B30007A68D2183B181B781178084AD1543B18A0
:101B40001A783B1801321A700F23FB181B78072BE9
:101B5000EBD9C046C046BD4604B080BD140000208D
:101B600080B582B000AFFB1D00221A70FB1D19006A
:101B7000C020FEF7B7FC031E01D1002305E0FB1DCA
:101B80001B78EE3B5A425341DBB21800BD4602B00F
:101B900080BD80B582B000AFFB1D00221A70BB1D56
:101BA00000221A70BB1D19008920FEF79BFC031E42
:101BB00001D1002378E0BB1D1B7801221343DAB268
:101BC000BB1D1A70BB1D1B7819008920FEF744FD50
:101BD000031E01D1002367E000218820FEF73CFDB1
:101BE00003001A00FB1D511E8A411A70012180203A
:101BF000FEF732FD03001A00FB1D1B781A40FB1D87
:101C0000511E8A411A700121FF20FEF725FD0300B5
:101C10001A00FB1D1B781A40FB1D511E8A411A70C9
:101C200000210020FEF718FD03001A00FB1D1B78A1
:101C30001A40FB1D511E8A411A701D4B190091203C
:101C4000FEF750FC03001A00FB1D1B781A40FB1D19
:101C5000511E8A411A7001210020FEF7FDFC03008D
:101C60001A00FB1D1B781A40FB1D511E8A411A7079
:101C70000021FF20FEF7F0FC03001A00FB1D1B787B
:101C80001A40FB1D511E8A411A7000218020FEF768
:101C9000E3FC03001A00FB1D1B781A40FB1D511EBC
:101CA0008A411A70FB1D1B781800BD4602B080BD2A
:101CB0003300002080B582B000AF0121FF20FEF785
:101CC000CBFC03001A00FB1D511E8A411A70002133
:101CD0000020FEF7C1FC03001A00FB1D1B781A4010
:101CE000FB1D511E8A411A700021FF20FEF7B4FC33
:101CF00003001A00FB1D1B781A40FB1D511E8A4170
:101D00001A7000210920FEF7A7FC03001A00FB1D32
:101D10001B781A40FB1D511E8A411A7000211020A9
:101D2000FEF79AFC03001A00FB1D1B781A40FB1DEE
:101D3000511E8A411A7000211120FEF78DFC03000C
:101D40001A00FB1D1B781A40FB1D511E8A411A7098
:101D500001212420FEF780FC03001A00FB1D1B78E4
:101D60001A40FB1D511E8A411A70FF212520FEF7E3
:101D700073FC03001A00FB1D1B781A40FB1D511E4B
:101D80008A411A7000217520FEF766FC03001A00D4
:101D9000FB1D1B781A40FB1D511E8A411A70012140
:101DA000FF20FEF759FC03001A00FB1D1B781A40A8
:101DB000FB1D511E8A411A702C214E20FEF74CFC4F
:101DC00003001A00FB1D1B781A40FB1D511E8A419F
:101DD0001A7000214820FEF73FFC03001A00FB1D8B
:101DE0001B781A40FB1D511E8A411A702021302099
:101DF000FEF732FC03001A00FB1D1B781A40FB1D86
:101E0000511E8A411A700021FF20FEF725FC0300B5
:101E10001A00FB1D1B781A40FB1D511E8A411A70C7
:101E200009213020FEF718FC03001A00FB1D1B7867
:101E30001A40FB1D511E8A411A7000215420FEF7E2
:101E40000BFC03001A00FB1D1B781A40FB1D511EE2
:101E50008A411A7004213120FEF7FEFB03001A00AC
:101E6000FB1D1B781A40FB1D511E8A411A7003216D
:101E70003220FEF7F1FB03001A00FB1D1B781A400D
:101E8000FB1D511E8A411A7083214020FEF7E4FB9E
:101E900003001A00FB1D1B781A40FB1D511E8A41CE
:101EA0001A7025214620FEF7D7FB03001A00FB1D00
:101EB0001B781A40FB1D511E8A411A7000216020B8
:101EC000FEF7CAFB03001A00FB1D1B781A40FB1D1E
:101ED000511E8A411A7000212720FEF7BDFB030026
:101EE0001A00FB1D1B781A40FB1D511E8A411A70F7
:101EF00006215020FEF7B0FB03001A00FB1D1B78E3
:101F00001A40FB1D511E8A411A7000215120FEF714
:101F1000A3FB03001A00FB1D1B781A40FB1D511E7A
:101F20008A411A7096215220FEF796FB03001A0090
:101F3000FB1D1B781A40FB1D511E8A411A70082197
:101F40005620FEF789FB03001A00FB1D1B781A4080
:101F5000FB1D511E8A411A7030215720FEF77CFB71
:101F600003001A00FB1D1B781A40FB1D511E8A41FD
:101F70001A7000216120FEF76FFB03001A00FB1DA1
:101F80001B781A40FB1D511E8A411A7000216220E5
:101F9000FEF762FB03001A00FB1D1B781A40FB1DB5
:101FA000511E8A411A7000216420FEF755FB030080
:101FB0001A00FB1D1B781A40FB1D511E8A411A7026
:101FC00000216520FEF748FB03001A00FB1D1B786B
:101FD0001A40FB1D511E8A411A70A0216620FEF78F
:101FE0003BFB03001A00FB1D1B781A40FB1D511E12
:101FF0008A411A700121FF20FEF72EFB03001A0010
:10200000FB1D1B781A40FB1D511E8A411A7032219C
:102010002220FEF721FB03001A00FB1D1B781A404B
:10202000FB1D511E8A411A7014214720FEF714FB34
:1020300003001A00FB1D1B781A40FB1D511E8A412C
:102040001A70FF214920FEF707FB03001A00FB1D51
:102050001B781A40FB1D511E8A411A7000214A202C
:10206000FEF7FAFA03001A00FB1D1B781A40FB1D4D
:10207000511E8A411A700021FF20FEF7EDFA03007D
:102080001A00FB1D1B781A40FB1D511E8A411A7055
:102090000A217A20FEF7E0FA03001A00FB1D1B78E4
:1020A0001A40FB1D511E8A411A7000217B20FEF749
:1020B000D3FA03001A00FB1D1B781A40FB1D511EAA
:1020C0008A411A7021217820FEF7C6FA03001A000F
:1020D000FB1D1B781A40FB1D511E8A411A700121FD
:1020E000FF20FEF7B9FA03001A00FB1D1B781A4007
:1020F000FB1D511E8A411A7034212320FEF7ACFAD1
:1021000003001A00FB1D1B781A40FB1D511E8A415B
:102110001A7000214220FEF79FFA03001A00FB1DEF
:102120001B781A40FB1D511E8A411A70FF21442062
:10213000FEF792FA03001A00FB1D1B781A40FB1DE4
:10214000511E8A411A7026214520FEF785FA0300A8
:102150001A00FB1D1B781A40FB1D511E8A411A7084
:1021600005214620FEF778FA03001A00FB1D1B78B4
:102170001A40FB1D511E8A411A7040214020FEF773
:102180006BFA03001A00FB1D1B781A40FB1D511E41
:102190008A411A7006210E20FEF75EFA03001A002B
:1021A000FB1D1B781A40FB1D511E8A411A701A2113
:1021B0002020FEF751FA03001A00FB1D1B781A407D
:1021C000FB1D511E8A411A7040214320FEF744FA3C
:1021D00003001A00FB1D1B781A40FB1D511E8A418B
:1021E0001A700021FF20FEF737FA03001A00FB1DCA
:1021F0001B781A40FB1D511E8A411A70032134209E
:10220000FEF72AFA03001A00FB1D1B781A40FB1D7B
:10221000511E8A411A7044213520FEF71DFA030031
:102220001A00FB1D1B781A40FB1D511E8A411A70B3
:102230000121FF20FEF710FA03001A00FB1D1B7896
:102240001A40FB1D511E8A411A7004213120FEF7ED
:1022500003FA03001A00FB1D1B781A40FB1D511ED8
:102260008A411A7009214B20FEF7F6F903001A0083
:10227000FB1D1B781A40FB1D511E8A411A70052157
:102280004C20FEF7E9F903001A00FB1D1B781A40E9
:10229000FB1D511E8A411A7004214D20FEF7DCF906
:1022A00003001A00FB1D1B781A40FB1D511E8A41BA
:1022B0001A700021FF20FEF7CFF903001A00FB1D62
:1022C0001B781A40FB1D511E8A411A7000214420C0
:1022D000FEF7C2F903001A00FB1D1B781A40FB1D14
:1022E000511E8A411A7020214520FEF7B5F90300DE
:1022F0001A00FB1D1B781A40FB1D511E8A411A70E3
:1023000008214720FEF7A8F903001A00FB1D1B78DF
:102310001A40FB1D511E8A411A7028214820FEF7E1
:102320009BF903001A00FB1D1B781A40FB1D511E70
:102330008A411A7000216720FEF78EF903001A0007
:10234000FB1D1B781A40FB1D511E8A411A70042187
:102350007020FEF781F903001A00FB1D1B781A405C
:10236000FB1D511E8A411A7001217120FEF774F97C
:1023700003001A00FB1D1B781A40FB1D511E8A41E9
:102380001A70FE217220FEF767F903001A00FB1D88
:102390001B781A40FB1D511E8A411A7000217620BD
:1023A000FEF75AF903001A00FB1D1B781A40FB1DAB
:1023B000511E8A411A7000217720FEF74DF9030063
:1023C0001A00FB1D1B781A40FB1D511E8A411A7012
:1023D0000121FF20FEF740F903001A00FB1D1B78C6
:1023E0001A40FB1D511E8A411A7001210D20FEF773
:1023F00033F903001A00FB1D1B781A40FB1D511E08
:102400008A411A700021FF20FEF726F903001A0006
:10241000FB1D1B781A40FB1D511E8A411A700121B9
:102420008020FEF719F903001A00FB1D1B781A40E3
:10243000FB1D511E8A411A70F8210120FEF70CF98C
:1024400003001A00FB1D1B781A40FB1D511E8A4118
:102450001A700121FF20FEF7FFF803001A00FB1D90
:102460001B781A40FB1D511E8A411A7001218E20D3
:10247000FEF7F2F803001A00FB1D1B781A40FB1D43
:10248000511E8A411A7001210020FEF7E5F8030071
:102490001A00FB1D1B781A40FB1D511E8A411A7041
:1024A0000021FF20FEF7D8F803001A00FB1D1B785F
:1024B0001A40FB1D511E8A411A7000218020FEF730
:1024C000CBF803001A00FB1D1B781A40FB1D511EA0
:1024D0008A411A70FB1D1B781800BD4602B080BDF2
:1024E00080B582B000AFFB1D00221A7004210A20C3
:1024F000FEF7B2F8031E01D1002322E0FB1D1900F4
:102500008420FDF7EFFF031E01D1002319E0FB1D1E
:102510001B7810229343DAB2FB1D1A70FB1D1B7847
:1025200019008420FEF798F8031E01D1002308E06B
:1025300001210B20FEF790F8031E01D1002300E0DB
:1025400001231800BD4602B080BD80B582B000AF47
:102550000200FB1D1A70FB1D1B7819000120FEF7FD
:102560007BF803005A1E9341DBB21800BD4602B04F
:1025700080BD80B500AFFFF79DFB03001A0001236B
:102580005340DBB2002B01D0002317E0FFF7A8FF78
:1025900003001A0001235340DBB2002B01D00023BB
:1025A0000CE0E820FFF7D1FF03001A00012353409D
:1025B000DBB2002B01D0002300E001231800BD4650
:1025C00080BD90B585B000AF0200FB1D1A700F23CF
:1025D000FB1800221A700E23FB1800221A700C231D
:1025E000FB1800221A700D23FB1800221A70FB1D25
:1025F0001B78002B02D0012B09D011E00E23FB1811
:1026000001221A700F23FB1841221A7008E00E23D2
:10261000FB1802221A700F23FB1801221A70C04601
:102620000E23FB181B7819000120FEF715F8031E76
:1026300001D100233CE00F23FB181B781900002078
:10264000FEF70AF8031E01D1002331E00C243B19E8
:1026500019001320FDF746FF03001A000D203B1858
:10266000511E8A411A703B181B78002B05D03B196C
:102670001B781A0007231340E8D00D23FB181B78A2
:1026800001225340DBB2002B01D0002310E00121D6
:102690000B20FDF7E1FF031E01D1002308E000211C
:1026A0000020FDF7D9FF031E01D1002300E0012324
:1026B0001800BD4605B090BD80B500AF0020FFF703
:1026C00080FF03001A0001235340DBB2002B01D02E
:1026D000002318E00120FFF774FF03001A00012314
:1026E0005340DBB2002B01D000230CE0E820FFF7C1
:1026F0002CFF03001A0001235340DBB2002B01D052
:10270000002300E001231800BD4680BD80B500AF66
:10271000FFF726FA03001A0001235340DBB2002B17
:1027200001D0002321E0FFF734FA03001A0001234F
:102730005340DBB2002B01D0002316E0FFF719FF56
:1027400003001A0001235340DBB2002B01D0002309
:102750000BE0FFF7B1FF03001A0001235340DBB287
:10276000002B01D0002300E001231800BD4680BDEE
:1027700090B585B000AF78600E23FB1800221A7068
:102780000D23FB1800221A7001218020FDF764FF41
:1027900003001A000F243B19511E8A411A700121AF
:1027A000FF20FDF759FF03001A003B191B781A4060
:1027B0003B19511E8A411A7000210020FDF74CFF81
:1027C00003001A003B191B781A403B19511E8A411D
:1027D0001A70564B1B7819009120FDF73DFF03003E
:1027E0001A003B191B781A403B19511E8A411A7076
:1027F00001210020FDF730FF03001A003B191B7870
:102800001A403B19511E8A411A700021FF20FDF722
:1028100023FF03001A003B191B781A403B19511E75
:102820008A411A7000218020FDF716FF03001A006C
:102830003B191B781A403B19511E8A411A703B19EB
:102840001B7801225340DBB2002B01D0002368E04B
:1028500001210020FDF700FF031E01D1002360E0ED
:102860000E243B1919000020FDF73CFE03001A005E
:102870000F203B18511E8A411A703B181B78002B01
:1028800005D03B191B781A0001231340E8D10F2310
:10289000FB181B7801225340DBB2002B01D0002330
:1028A0003FE00D243B1919001320FDF71BFE030028
:1028B0001A000F203B18511E8A411A703B181B78D2
:1028C000002B05D03B191B781A0007231340E8D0D2
:1028D0000F23FB181B7801225340DBB2002B01D0E1
:1028E00000231EE07B6819001E20FDF74FFE031E2B
:1028F00001D1002315E001210B20FDF7ADFE031EE1
:1029000001D100230DE07B681B88094A934204D063
:102910007B681B88074A934202D17B68044A1A806D
:1029200001231800BD4605B090BDC046330000200D
:10293000FE1F0000FF1F000080B582B000AF012124
:102940008020FDF789FE03001A00FB1D511E8A41FD
:102950001A700121FF20FDF77FFE03001A00FB1D06
:102960001B781A40FB1D511E8A411A70002100205D
:10297000FDF772FE03001A00FB1D1B781A40FB1DB9
:10298000511E8A411A70254B1B7819009120FDF7C2
:1029900063FE03001A00FB1D1B781A40FB1D511E2D
:1029A0008A411A7001210020FDF756FE03001A002B
:1029B000FB1D1B781A40FB1D511E8A411A70002115
:1029C000FF20FDF749FE03001A00FB1D1B781A408B
:1029D000FB1D511E8A411A7000218020FDF73CFE2C
:1029E00003001A00FB1D1B781A40FB1D511E8A4173
:1029F0001A70FB1D1B7801225340DBB2002B01D063
:102A0000002307E002210020FDF726FE03005A1EE6
:102A10009341DBB21800BD4602B080BD33000020F8
:102A200080B582B000AF01218020FDF715FE0300C4
:102A30001A00FB1D511E8A411A700121FF20FDF76B
:102A40000BFE03001A00FB1D1B781A40FB1D511ED4
:102A50008A411A7000210020FDF7FEFD03001A00D4
:102A6000FB1D1B781A40FB1D511E8A411A70254B15
:102A70001B7819009120FDF7EFFD03001A00FB1DE4
:102A80001B781A40FB1D511E8A411A70012100203B
:102A9000FDF7E2FD03001A00FB1D1B781A40FB1D29
:102AA000511E8A411A700021FF20FDF7D5FD030059
:102AB0001A00FB1D1B781A40FB1D511E8A411A701B
:102AC00000218020FDF7C8FD03001A00FB1D1B78C4
:102AD0001A40FB1D511E8A411A70FB1D1B780122F2
:102AE0005340DBB2002B01D0002307E0002100207F
:102AF000FDF7B2FD03005A1E9341DBB21800BD463C
:102B000002B080BD3300002090B585B000AF786082
:102B10000E243B1919001320FDF7E4FC03001A00F2
:102B20000F203B18511E8A411A703B181B78002B4E
:102B300005D03B191B781A0007231340E8D00F2358
:102B4000FB181B7801225340DBB2002B01D000237D
:102B50001EE07B6819001E20FDF718FD031E01D141
:102B6000002315E001210B20FDF776FD031E01D1A6
:102B700000230DE07B681B88074A934204D07B68E2
:102B80001B88064A934202D17B68034A1A800123BC
:102B90001800BD4605B090BDFE1F0000FF1F0000DD
:102BA00080B582B000AFBB1D19001320FDF79AFC61
:102BB00003001A00FB1D511E8A411A70FB1D1B7871
:102BC000002B07D0BB1D1B781A000723134001D030
:102BD000012300E000231A1C01231340DBB218007C
:102BE000BD4602B080BDC04680B500AF084B002294
:102BF0001A80084B00221A70074B00221A70074BEC
:102C000000221A70064B00221A70C046BD4680BDD5
:102C1000340000203600002037000020380000205B
:102C20003900002080B500AF024B1B881800BD465C
:102C300080BDC0463400002080B582B000AF0200E5
:102C4000BB1D1A80BB1D1B88002B04D0BB1D1B881D
:102C5000314A934202D1314B1B7858E0304B1B78FC
:102C6000002B07D12F4BBA1D12881A802C4B012242
:102C70001A700CE02B4B1B881A0013005B009A188B
:102C8000BB1D1B88D3189B089AB2264B1A80234B76
:102C90001B7801225340DBB2002B1BD0214B1B8839
:102CA000962B13D8204B1B780133DAB21E4B1A70C7
:102CB0001D4B1B78022B28D9184B01221A701A4B76
:102CC00000221A70194B00221A701EE0164B0022C7
:102CD0001A701AE0134B1B88B32B13D9134B1B78B4
:102CE0000133DAB2114B1A70104B1B78022B0CD93E
:102CF0000A4B00221A700D4B00221A700A4B002258
:102D00001A7002E0094B00221A70044B1B7818005D
:102D1000BD4602B080BDC046FE1F00003900002045
:102D2000360000203400002037000020380000204A
:102D3000002243088B4274D303098B425FD3030AFA
:102D40008B4244D3030B8B4228D3030C8B420DD30D
:102D5000FF22090212BA030C8B4202D3121209029B
:102D600065D0030B8B4219D300E0090AC30B8B42D9
:102D700001D3CB03C01A5241830B8B4201D38B0387
:102D8000C01A5241430B8B4201D34B03C01A52412C
:102D9000030B8B4201D30B03C01A5241C30A8B426F
:102DA00001D3CB02C01A5241830A8B4201D38B025A
:102DB000C01A5241430A8B4201D34B02C01A5241FE
:102DC000030A8B4201D30B02C01A5241CDD2C30970
:102DD0008B4201D3CB01C01A524183098B4201D3EC
:102DE0008B01C01A524143098B4201D34B01C01AD7
:102DF000524103098B4201D30B01C01A5241C3084F
:102E00008B4201D3CB00C01A524183088B4201D3BD
:102E10008B00C01A524143088B4201D34B00C01AA9
:102E20005241411A00D20146524110467047FFE715
:102E300001B5002000F0F0F802BDC0460029F7D02F
:102E400076E7704703460B437FD4002243088B424A
:102E500074D303098B425FD3030A8B4244D3030B21
:102E60008B4228D3030C8B420DD3FF22090212BAE6
:102E7000030C8B4202D31212090265D0030B8B4262
:102E800019D300E0090AC30B8B4201D3CB03C01A4C
:102E90005241830B8B4201D38B03C01A5241430B27
:102EA0008B4201D34B03C01A5241030B8B4201D317
:102EB0000B03C01A5241C30A8B4201D3CB02C01A82
:102EC0005241830A8B4201D38B02C01A5241430AFA
:102ED0008B4201D34B02C01A5241030A8B4201D3E9
:102EE0000B02C01A5241CDD2C3098B4201D3CB0190
:102EF000C01A524183098B4201D38B01C01A52413F
:102F000043098B4201D34B01C01A524103098B4242
:102F100001D30B01C01A5241C3088B4201D3CB002D
:102F2000C01A524183088B4201D38B00C01A524110
:102F300043088B4201D34B00C01A5241411A00D2C0
:102F400001465241104670475DE0CA0F00D0494229
:102F5000031000D34042534000229C4603098B4299
:102F60002DD3030A8B4212D3FC22890112BA030A21
:102F70008B420CD3890192118B4208D389019211A3
:102F80008B4204D389013AD0921100E08909C30928
:102F90008B4201D3CB01C01A524183098B4201D32A
:102FA0008B01C01A524143098B4201D34B01C01A15
:102FB000524103098B4201D30B01C01A5241C3088D
:102FC0008B4201D3CB00C01A524183088B4201D3FC
:102FD0008B00C01A5241D9D243088B4201D34B0017
:102FE000C01A5241411A00D20146634652415B1059
:102FF000104601D34042002B00D54942704763463A
:103000005B1000D3404201B5002000F005F802BD7E
:103010000029F8D016E770477047C046E80C000852
:10302000180B00082A0B0008440B0008620B00086C
:103030007E0B00089A0B0008E80C0008E80C00085A
:10304000E80C0008E80C0008E80C0008E80C000890
:10305000E80C0008E80C0008E80C0008A00B0008C9
:10306000A80B0008B00B0008B80B0008E80C00081B
:10307000E80C0008E80C0008E80C0008E80C000860
:10308000E80C0008E80C0008E80C0008E80C000850
:10309000E80C0008E80C0008E80C0008D80C000850
:1030A000E80C0008E80C0008E80C0008E80C000830
:1030B000E80C0008E80C0008E80C0008E80C000820
:1030C000E80C0008E80C0008E80C0008E80C000810
:1030D000E80C0008E80C0008E80C0008580C000890
:1030E000A20C0008E80C0008E80C0008E80C000836
:1030F000E80C0008E80C0008E80C0008E80C0008E0
:10310000E80C0008E80C0008E80C0008E80C0008CF
:10311000E80C0008E80C0008E80C0008C00B0008E8
:10312000D20B0008E80C0008E80C0008E80C0008C6
:10313000E80C0008E80C0008E80C0008E80C00089F
:10314000E80C0008E80C0008E80C0008E80C00088F
:10315000E80C0008E80C0008E80C0008E80C00087F
:10316000E80C0008E80C0008E80C0008E80C00086F
:10317000E80C0008E80C0008E80C0008E80C00085F
:10318000E80C0008E80C0008E80C0008E80C00084F
:10319000E80C0008E80C0008E80C0008DA0B00084E
:1031A000E80C0008240C00080001010002010203E1
:1031B00001020102000003030200020102010003F8
:1031C00001000000030303030303030301000000E5
:0C31D000010000000303030303030303DA
:04000005080000B936
:00000001FF
