:1000000002002E754500752100752200E4F523F5E8
:1000100024752500752600752901C200C201C2029F
:10002000C203C204220000000000000210A7758174
:10003000491203BAE582600302009A780079007AD7
:10004000007B007C007D00EC4D601C88828983E48D
:1000500093A3A882A9838A828B83F0A3AA82AB830D
:100060001CBCFFE31D80E07582007583007C7F7DF2
:1000700000EC4D600AE4F0A31CBCFFF51D80F27596
:1000800082007583007C007D00EC4D600AE4F0A3E3
:100090001CBCFFF51D80F21200031214F280FE4119
:1000A00055544F2020207C7C20004D414E55414C22
:1000B000207C7C200053544F502020202000464FAD
:1000C00052574152442020004241434B5741524431
:1000D00020004C454654202020202000524947480B
:1000E000542020202000524F54203138302020004E
:1000F00050415448202031202000504154482020B5
:10010000322020005041544820203320200050410C
:1001100054482020342020004155544F20204F4E79
:1001200020004155544F204F464620005041555322
:10013000454420202000524553554D494E4720004C
:10014000484F524E2121202020003F3F3F202020B9
:1001500020202000464F525741524420004C454633
:100160005420202020005249474854202020003F9E
:100170003F3F20202020200050726F6772616D2069
:100180004D6F64653A2020200053544D3332205285
:10019000656164792120202020004C6F6164696EC4
:1001A000672E2E2E202020202020005061746820F1
:1001B00034205361766564212020200050617468EA
:1001C00020526563656976656420202020005365B0
:1001D000742050617373776F72643A20202000504E
:1001E0006173733A203030303020202020202000EE
:1001F00050617373776F72642053657421202020DF
:1002000000414443204F4B2D4D4F5645204A4F59F6
:1002100020003E53544F502020202020202020201A
:10022000203C20004C4F434B4544202020202020E0
:100230002020202000556E6C6F636B6564202020A9
:1002400020202020200052657475726E696E672E22
:100250002E2E202020200053544F502020202020DC
:10026000202020202020200057726F6E67205061D0
:100270007373776F72642020005472792041676134
:10028000696E20202020202020004C6F636B696E57
:10029000672E2E2E2020202020200054696D653AE4
:1002A000205041555345442020202000AA82AB8392
:1002B000ACF07508E8750903852782852883C0029C
:1002C000C003C004121C99AD82AE8375080AE4F520
:1002D000098D828E83121C4CAD82D004D003D002D3
:1002E00074302D8A828B838CF0121D4A74012AFD92
:1002F000E43BFE8C07750864E4F5098527828528B0
:1003000083C002C003C004C005C006C007121C9908
:10031000A882A98375080AE4F50988828983121CDA
:100320004CA882D007D006D005D004D003D00274E8
:1003300030288D828E838FF0121D4A74022AFDE4CC
:100340003BFE8C0775080AE4F5098527828528831A
:10035000C002C003C004C005C006C007121C99A893
:1003600082A98375080AE4F50988828983121C4CE6
:10037000A882D007D006D005D004D003D0027430B4
:10038000288D828E838FF0121D4A74032AFAE43B73
:10039000FB75080AE4F509852782852883C002C019
:1003A00003C004121C4CAD82D004D003D0027430C0
:1003B0002D8A828B838CF0021D4A75A7007597DE0B
:1003C0007597AD43FF8075EF0275A71075C1207555
:1003D000A70075A90075A900E5A930E7FB75A90379
:1003E00075A903E5A930E7FB43A41043A59F43A6E5
:1003F0000175A72053F3F943CC0675A70075E101F9
:1004000075E20075E341759810758DE6858D8B5307
:10041000890F438920D28ED299C29475820022AA74
:100420008275A720BA0A0810990280FB75990D10F1
:10043000990280FB8A9975A70022AA82438E407593
:1004400092B87593FF8592948593957591047B007E
:10045000C3EB9A500BE59130E7FB53917F0B80F093
:1004600075910022AA82AB837C007D00C3EC9AEDDB
:100470009B502B7E00BE0400501D7582FAC002C046
:1004800003C004C005C00612043AD006D005D0044B
:10049000D003D0020E80DE0CBC00D10D80CE22AA8B
:1004A000828508F005F07401800225E0D5F0FBFBA1
:1004B00075A720BA0002800ABA0102800FBA021E94
:1004C0008014EBF4FA52F1EB42D48012EBF4FA52BE
:1004D000F2EB42D58008EBF4FA52F3EB42CC75A76D
:1004E000002275A700C2EF75B28075BC2075B91ED9
:1004F00075E80075DF3F75B300D2EF228582BBC27D
:10050000EDD2EC10ED0280FBD2EC30EDFD85BD822A
:1005100085BE832275820C1204FC75820C1204FCC9
:10052000AA82AB83EA4B7003F582228A088B097595
:100530000A00750B009006A4E4F5F0121B7975080B
:10054000FF75091F750A00750B00121BE7858208ED
:1005500085830985F00AF50B90000BE4F5F0121B7A
:1005600079AA82AB83ACF0FDC3EA9428EB9423EC28
:100570009400ED9400400475826422C374889A74D8
:10058000139BE49CE49D400475820022EA2478F5E4
:1005900008EB34ECF509EC34FFF50AED34FFF50B0C
:1005A000900064E4F5F0121B797508A075090F75C9
:1005B0000A00750B00021BE7D2A075822812043ACC
:1005C000C2A022AA828AE0A2E79290A2E69291A219
:1005D000E59292A2E49293C0021205B875822812A5
:1005E000043AD0028AE0A2E39290A2E29291A2E1C0
:1005F0009292A2E092930205B8D2971205C390009E
:1006000002020464C2971205C3900005020464C28A
:10061000A0900014120464758233120604758233AC
:1006200012060475823212060475822812060475B9
:10063000820C120604758201120604900014020452
:1006400064AA82AB83ACF07402B52A047DC0800238
:100650007D808D82C002C003C00412060490000594
:10066000120464D004D003D0027D007E00ED2AFF86
:10067000EE3BF88C018F82888389F0121B5DFF604E
:10068000208F82C002C003C004C005C0061205F955
:10069000D006D005D004D003D0020DBD00CF0E800F
:1006A000CC3005248D028E03C3EA9410EB64809451
:1006B000805015758220C002C0031205F9D003D006
:1006C000020ABA00E30B80E022300604B2948002F2
:1006D000C29475820D02043AAA827B007C00BC2081
:1006E000005014D206C002C003C0041206C9D004D0
:1006F000D003D0020C80E7C2947C00BC080050609C
:1007000074015AFDB401009207EAC313FAEBC31354
:10071000FB7D00BD1000501AA2079206C002C00364
:10072000C004C0051206C9D005D004D003D0020D04
:1007300080E1C2943095034303807D00BD100050DA
:100740001AA2079206C002C003C004C0051206C95F
:10075000D005D004D003D0020D80E1C2940C809B60
:100760007A00BA20005010C206C002C0031206C9A7
:10077000D003D0020A80EBC2948B8222AA8274FF3B
:10078000C39AFB8A82C002C0031206D8AC82D0038F
:100790008B82C003C0041206D8AD82D004D003D02F
:1007A00002C294ECB50207EDB503038C8222758278
:1007B000FF2230041A75089F750900750A80750BB1
:1007C0000AE4F50C90002B75F040121AE9801875B8
:1007D00008AA750900750A80750B0AE4F50C9000EB
:1007E0002B75F040121AE97535507536417537543E
:1007F00075384875393A74302529F53A753B0075D6
:100800002A02C20590002B75F04002064175820E47
:100810001204FCAA82AB8375820FC002C0031204CB
:10082000FCAC82AD83D003D002C374289A74239B9E
:10083000500475820522C3EA94B8EB940B500475FA
:10084000820422C3EC94B8ED940B5004758202220A
:10085000C374289C74239D50047582032275820101
:1008600022AA82BA01028051BA02028053BA03025C
:100870008055BA04028057BA05028059BA06028030
:100880005BBA1002805DBA11030208EABA120302D1
:1008900008F1BA13030208F8BA200302091BBA30A0
:1008A000030208FFBA3103020906BA400302090D28
:1008B000BA41030209140209229000B575F08022A2
:1008C0009000BE75F080229000C875F080229000E4
:1008D000D275F080229000DC75F080229000E675E1
:1008E000F080229000F075F080229000FA75F08080
:1008F0002290010475F0802290010E75F080229004
:10090000011875F0802290012275F0802290012C50
:1009100075F0802290013675F0802290014075F0CC
:10092000802290014A75F08022E582FA24FC402F53
:10093000EA2A2A9009377302094302094A02095137
:1009400002095890015475F0802290015D75F08085
:100950002290016675F080229000B575F08022909B
:10096000016F75F08022120861AA82AB83ACF0752A
:10097000820CC002C003C0041204FC120514AD8234
:10098000D004D003D0027E00BE10005010EE240828
:10099000F582E43400F5837420F00E80EB900018AB
:1009A000E4F07E00BE08005023EE2AFFE43BF88C02
:1009B000018F82888389F0121B5DFF600FEE24088F
:1009C000F582E43400F583EFF00E80D890001374C4
:1009D00042F0900014743AF0BD6400401490001589
:1009E0007431F09000167430F09000177430F0807D
:1009F0001F9000157420F075F00AED8424309000EB
:100A000016F075F00AED84E5F02430FA900017F046
:100A1000752A01D20590000875F000020641758222
:100A20000E1204FCAA82AB8375820FC002C00312AF
:100A300004FCAC82AD83D003D002C374C29C741595
:100A40009D504FEC243EFEED34EAFF8E088F097571
:100A50000A00750B00900064E4F5F0C002C00312B8
:100A60001B7975082E75090E750A00750B00121C8E
:100A7000C2AE82AF83A8F0F9D003D002C374649EE3
:100A8000E464808FF063F08095F050657E647F00B1
:100A9000805FC3EC94DAED9411505274DAC39CFC7D
:100AA00074119DFD8C088D09750A00750B0090006E
:100AB00064E4F5F0C002C003121B7975085675098D
:100AC0000E750A00750B00121CC2AC82AD83A8F033
:100AD000F9D003D002C3E49CFEE49DFFC3EE949CD6
:100AE000EF6480947F500A7E9C7FFF80047E007FAD
:100AF00000C374C29A74159B504FEA243EFCEB3439
:100B0000EAFD8C088D09750A00750B00900032E42F
:100B1000F5F0C006C007121B7975082E75090E7511
:100B20000A00750B00121CC2AC82AD83A8F0F9D08C
:100B300007D006C374329CE464808DF063F0809526
:100B4000F050657C327D00805FC3EA94DAEB94114B
:100B5000505274DAC39AFA74119BFB8A088B097598
:100B60000A00750B00900032E4F5F0C006C00712D1
:100B70001B7975082E75090E750A00750B00121C7D
:100B8000C2AA82AB83A8F0F9D007D006C3E49AFCCE
:100B9000E49BFDC3EC94CEED6480947F500A7CCE40
:100BA0007DFF80047C007D00EE4F7010EC4D700CDA
:100BB00075820112077C758201020966EC2EFAED3E
:100BC0003FFBEEC39CFCEF9DFDC374649AE464801C
:100BD0008BF063F08095F050047A647B00C3EA9454
:100BE0009CEB6480947F50047A9C7BFFC374649C6C
:100BF000E464808DF063F08095F050047C647D00A7
:100C0000C3EC949CED6480947F50047C9C7DFFEB4E
:100C100033E433FEB40100E433FF60078A0743077F
:100C20008080068A00C3E498FF8F3CED33E433F8FC
:100C3000B40100E433F960078C0143018080068C25
:100C400007C3E49FF974AFC3953CC399FF75825005
:100C5000C002C003C004C005C006C007C000C00178
:100C60001206D8853C821206D8D00189821206D895
:100C7000D000D0078F82C0001206D8C2941205148B
:100C800085823DD000D006D005D004D003D002909C
:100C90000019744CF0EE600BC3E49AF53EE49BF54A
:100CA0003F80048A3E8B3F750864E4F509853E82E7
:100CB000853F83C002C003C004C005C006C0001247
:100CC0001D63A982AF8375080AE4F50989828F83C1
:100CD000121D14AF82A983D000D006D005D004D055
:100CE00003D00274302FFF90001AF0EE6009C3E4C5
:100CF0009AFFE49BF980048A078B0175080AE4F5E2
:100D0000098F828983C002C003C004C005C006C029
:100D100000121D63AF82A98375080AE4F5098F826A
:100D20008983121D14AF82A983D000D006D005D0CC
:100D300004D003D00274302FFF90001BF0EE600946
:100D4000C3E49AFEE49BFF80048A068B0775080AB9
:100D5000E4F5098E828F83C004C005C000121D1403
:100D6000AA82AB83D000D005D00474302AFA900058
:100D70001CF090001D7420F090001E7452F0E8608A
:100D800009C3E49CFAE49DFB80048C028D03750882
:100D900064E4F5098A828B83C004C005C000121D7B
:100DA00063AA82AB8375080AE4F5098A828B8312F1
:100DB0001D14AA82AB83D000D005D00474302AFA67
:100DC00090001FF0E86009C3E49CFAE49DFB8004F6
:100DD0008C028D0375080AE4F5098A828B83C004AE
:100DE000C005C000121D63AA82AB8375080AE4F532
:100DF000098A828B83121D14AA82AB83D000D0058E
:100E0000D00474302AFA900020F0E86009C3E49C12
:100E1000FAE49DFB80048C028D0375080AE4F50951
:100E20008A828B83121D14AA82AB8374302AFA90B3
:100E30000021F09000227420F09000237442F09082
:100E40000024743AF0749C253D50149000257431B0
:100E5000F09000267430F09000277430F0802190DC
:100E600000257420F075F00AE53D842430900026BA
:100E7000F075F00AE53D84E5F02430FA900027F0A3
:100E80009000287425F0900029E4F0752A01D2051D
:100E900090001975F000020641AA82AB09AC0AADB8
:100EA0000BEA30E3047E3180027E308B828C838DAE
:100EB000F0EE121D4A74012BFEE43CFF8D00EA3077
:100EC000E2047931800279308E828F8388F0E912D2
:100ED0001D4A74022BFEE43CFF8D00EA30E10479E8
:100EE00031800279308E828F8388F0E9121D4A7436
:100EF000032BFEE43CFF8D00EA30E0047A318002EF
:100F00007A308E828F8388F0EA121D4A74042BFB9C
:100F1000E43CFC8B828C838DF0E4021D4AAA82ABF8
:100F200083ACF07D00750940750A00750B408D8219
:100F3000C002C003C004C005120E99D005D004D071
:100F400003D00290002A7450F090002B7461F0904E
:100F5000002C7473F090002D7473F090002E743A8E
:100F6000F090002F7420F0900030E540F0900031B8
:100F7000E541F0900032E542F0900033E543F09017
:100F800000347420F09000357420F0900036742006
:100F9000F09000377420F09000387420F090003901
:100FA0007420F090003AE4F0752A01D2058A828B11
:100FB000838CF0C002C003C004C005120641752A2C
:100FC00002D20590002A75F000120641D005D00427
:100FD000D003D00220A53E900014C002C003C0047C
:100FE000C005120464D005D004D003D00230A5039C
:100FF000021077ED2DFE740F5EFD30A5FD900032DE
:10100000C002C003C004C005120464D005D004D0DF
:1010100003D002806220A43D900014C002C003C02F
:1010200004C005120464D005D004D003D00220A46B
:1010300046ED2DFE74014E540FFD30A4FD9000329C
:10104000C002C003C004C005120464D005D004D09F
:1010500003D002802220A61F900014C002C003C04B
:1010600004C005120464D005D004D003D00220A629
:101070000630A6FD8D8222900032C002C003C0045B
:10108000C005120464D005D004D003D002020F259D
:1010900075C800538ECF75CAA075CB1585CACE858D
:1010A000CBCFD2ADD2CA22C0E0C0D075D000C2CF63
:1010B00030041020020D0545749C254550057545EA
:1010C00000D203D0D0D0E03275083CE4F509852386
:1010D00082852483121C99AA828A2575083CE4F52E
:1010E00009852382852483121C4CAA828A26120534
:1010F00014AA8290003B7454F090003C7469F09004
:10110000003D746DF090003E7465F090003F743ABD
:10111000F0C3E525940AB3E433FB600B75F00AE5F0
:1011200025842430FB80027B20900040EBF075F09A
:101130000AE52584E5F02430900041F090004274E7
:101140003AF075F00AE526842430900043F075F0FB
:101150000AE52684E5F02430FB900044F090004539
:101160007420F09000467442F0900047743AF0BA50
:10117000640040149000487431F09000497430F0DD
:1011800090004A7430F0802E9000487420F0BA0A23
:1011900000B3E433FB600A75F00AEA842430FB8074
:1011A000027B20900049EBF075F00AEA84E5F02418
:1011B00030FA90004AF090004BE4F0752A01D20515
:1011C00090003B75F0000206417A037522007B0017
:1011D000BB08005010EB2400F582E43400F5837462
:1011E00003F00B80EB758260C00212077CAB82D0EB
:1011F00002BB6022752A01D20590017875F080C08B
:1012000002120641752A02D20590018975F08012FA
:101210000641D0028020752A01D20590017875F030
:1012200080C002120641752A02D20590019A75F01B
:1012300080120641D002900320C002120464D00242
:1012400074F8252250030214AB90004C7453F090B4
:10125000004D7474F090004E7465F090004F7470FF
:10126000F09000507420F074312522900051F090DD
:101270000052742FF09000537438F0900054743A78
:10128000F09000557420F09000567420F0900057B4
:101290007420F09000587420F09000597420F09061
:1012A000005A7420F090005B7420F090005CE4F031
:1012B0007C00BC0800503BEC245DFDE43400FE8A59
:1012C00082C002C004C005C006120929AF82A883EB
:1012D000A9F0D006D005D004D002EC2FFFE438F8F6
:1012E0008F82888389F0121B5DFF8D828E83F00CC4
:1012F00080C0BC10005010EC245DF582E43400F591
:10130000837420F00C80EB90006DE4F0752A01D21C
:101310000590004C75F000C002120641752A02D2F9
:101320000590005D75F000120641D00220A52890BE
:101330000014C002120464D00230A50302149E0AF5
:10134000EA24FC50027A0030A5FD900064C002122D
:101350000464D00202149E20A428900014C002123B
:101360000464D00230A40302149EEA70047A03805D
:10137000011A30A4FD900064C002120464D002027D
:10138000149E30A60302149E900014C0021204643E
:10139000D00230A60302149E7C007D0020A624C348
:1013A000EC94B0ED9404501B90000AC002C004C03D
:1013B00005120464D005D004D002740A2CFCE43D6C
:1013C000FD80D9C3EC94E8ED94035003021453E577
:1013D000222400F582E43400F583EAF0758261C0CE
:1013E000021206D88522821206D8D0028A82C00252
:1013F0001206D8D002749EC39522C39AF5821206B3
:10140000D8C2949000641204640522AC22BC080087
:1014100040030214ABEC2400F582E43400F583743D
:1014200003F0758261C0041206D8D0048C82C00417
:101430001206D87582031206D8D004749BC39CF59B
:1014400082C0041206D8C294900064120464D004CE
:101450000C80BAE5222400F582E43400F583EAF03A
:10146000758261C0021206D88522821206D8D00287
:101470008A82C0021206D8D002749EC39522C39AF3
:10148000F5821206D8C29490006412046405227A90
:101490000330A6FD900064C002120464D0029000E4
:1014A00032C002120464D002021240758262120736
:1014B0007CAB82900064C003120464752A01D205DB
:1014C0009001AB75F080120641D003BB6210752A03
:1014D00002D2059001BC75F080120641800E752A7B
:1014E00002D20590019A75F0801206419005DC0247
:1014F000046475080175820212049F7508027582E2
:101500000212049F75080675820112049F1204E2FC
:1015100090012C12046412060F121090D2AF752A9B
:1015200001D2059001CE75F080120641752A02D2D3
:10153000059001DF75F0801206419003E812046403
:101540009001CE75F080120F1D858221D200752A80
:1015500001D2059001F075F0801206419003E81267
:10156000046475460074E2254650030217A675828E
:101570000E1204FCAB82AC8375820FC003C0041250
:1015800004FCAD82AE83D004D00390006E7458F09A
:1015900090006F743DF07508107509278B828C835D
:1015A000C003C004C005C006121C99AF82AA83758F
:1015B000080AE4F5098F828A83121C4CAA82D0069D
:1015C000D005D004D00374302A900070F07508E87C
:1015D0007509038B828C83C003C004C005C006124A
:1015E0001C99AA82AF8375080AE4F5098A828F8361
:1015F000121C4CAA82D006D005D004D00374302A25
:10160000900071F0750864E4F5098B828C83C00347
:10161000C004C005C006121C99AA82AF8375080ACF
:10162000E4F5098A828F83121C4CAA82D006D00569
:10163000D004D00374302A900072F075080AE4F5E3
:10164000098B828C83C003C004C005C006121C999C
:10165000AA82AF8375080AE4F5098A828F83121C77
:101660004CAA82D006D005D004D00374302A900052
:1016700073F075080AE4F5098B828C83C005C006F7
:10168000121C4CAA82D006D00574302A900074F047
:101690009000757420F09000767459F09000777483
:1016A0003DF07508107509278D828E83C005C00630
:1016B000121C99AA82AB8375080AE4F5098A828B09
:1016C00083121C4CAA82D006D00574302A90007870
:1016D000F07508E87509038D828E83C005C0061277
:1016E0001C99AA82AB8375080AE4F5098A828B8368
:1016F000121C4CAA82D006D00574302A900079F0D2
:10170000750864E4F5098D828E83C005C006121C3D
:1017100099AA82AB8375080AE4F5098A828B831241
:101720001C4CAA82D006D00574302A90007AF0753D
:10173000080AE4F5098D828E83C005C006121C9943
:10174000AA82AB8375080AE4F5098A828B83121C8E
:101750004CAA82D006D00574302A90007BF0750820
:101760000AE4F5098D828E83121C4CAA8274302AF9
:1017700090007CF090007D7420F090007EE4F07585
:101780002A01C20590020175F080120641752A02F5
:10179000C20590006E75F0001206419000641204BC
:1017A00064054602156512080D752A01C2059002EE
:1017B0001275F0801206411207B290012C120464D7
:1017C000300410100302800B0523E4B52302052426
:1017D0001210C830016B90022475F080120F1DE5C5
:1017E00082FAB52137C201752A01D20590023575FA
:1017F000F080120641752A02D20590024675F080EB
:101800001206419003E8120464752A01C205900291
:101810005775F0801206411207B280A4752A01D2D2
:101820000590026875F080120641752A02D2059073
:10183000027975F0801206419003E81204640217E1
:10184000C030043430A6030218D075824012077CE1
:1018500075824012096620A6089000141204648064
:10186000F575824112077C7582411209669000C8A5
:101870001204641207B2805820A655900014120476
:101880006420A64C7A007B0020A620C3EA94B0EB2B
:101890009404501790000AC002C003120464D003DD
:1018A000D002740A2AFAE43BFB80DDC3EA94E8EB39
:1018B00094034019D201752A01D20590028A75F06D
:1018C000801206419001F41204640217C030A6FD94
:1018D00030A50302196590001412046430A50302B8
:1018E0001A652004687A007B0020A520C3EA94E8EA
:1018F000EB9403501790000AC002C003120464D096
:1019000003D002740A2AFAE43BFB80DDC3EA942088
:10191000EB9403402030A5FD1211C9752A01C205C0
:1019200090025775F0801206411207B290006412BF
:101930000464021A6575822012077C7582201209E0
:101940006630A5FD9000C8120464021A65758220F5
:1019500012077C75822012096630A5FD9000C8121E
:101960000464021A6530A403021A3C9000141204A5
:101970006430A403021A657A007B0020A420C3EA25
:101980009458EB9402501790000AC002C00312044E
:1019900064D003D002740A2AFAE43BFB80DDC3EA78
:1019A00094F4EB9401402EB2043004047A308002A7
:1019B0007A318A82C00212077CD0028A82120966BA
:1019C000300471E4F523F524C2021210C8900064BB
:1019D000120464805F300420B202300210752A01C4
:1019E000D20590029B75F08012064180031210C848
:1019F0009000C8120464803C0529E52924FB5003AB
:101A00007529017401B529047B1080187402B52969
:101A1000047C11800D7403B529047D1280027D13AE
:101A20008D048C038B028A82C00212077CD0028A4A
:101A3000821209661207B230A4FD802920A32090EB
:101A4000001412046420A31D75820612077C75829F
:101A5000061209669000C812046430A3FD800620B7
:101A60000403120A1E120514AA8275F064EA847532
:101A7000F00A84E5F02430F54775F00AEA8475F041
:101A80000A84E5F02430F54875F00AEA84E5F0248C
:101A900030F5497A007B00C3EA9403EB64809480BC
:101AA0005018EA2447F88682C002C00312041FD0EF
:101AB00003D0020ABA00E00B80DD75822012041FF9
:101AC000A204E4332430F58212041F75822012042C
:101AD0001F74302529F58212041F75820A12041F13
:101AE0009000501204640217C0AA82AB83ACF08A43
:101AF0000D8B0E8C0FA80BA90C850810850911857C
:101B00000A12E849602F8510828511838512F01230
:101B10001B5DF513601F18B8FF01190510E4B5101F
:101B20000205118A828B838CF0E513121D4AA3AA49
:101B300082AB8380CD8805890618B8FF0119ED4E68
:101B400060118A828B838CF0E4121D4AA3AA82ABB7
:101B50008380E2850D82850E83850FF02220F714A5
:101B600030F6148883A88220F507E6A883758300E1
:101B700022E280F7E49322E022AAF0FBE5828508C6
:101B8000F0A4FCADF0E5838508F0A42DFDE435F06C
:101B9000FEE5828509F0A42DFDE5F03EFEE433FF6D
:101BA000EA8508F0A42EFEE5F03FFFE5838509F005
:101BB000A42EFEE5F03FFFE582850AF0A42EFEE5A7
:101BC000F03FFFEB8508F0A42FFFEA8509F0A42F72
:101BD000FFE583850AF0A42FFFE582850BF0A42F93
:101BE0008EF08D838C8222FB7A20E4FCFDFEFFE5E3
:101BF000822582F582E58333F583E5F033F5F0EB5A
:101C000033FB4017DAE98042E5822582F582E583DD
:101C100033F583E5F033F5F0EB33FBEC33FCED33D8
:101C2000FDEE33FEEF33FFEC9508ED9509EE950AD6
:101C3000EF950B4013EC9508FCED9509FDEE950A28
:101C4000FEEF950BFF438201DABEEB22E508450962
:101C500060467A01E50825E0F508E509334012F50C
:101C600009E5829508E583950940030A80E6C3E506
:101C70000913F509E50813F508C3E5829508F5F0A1
:101C8000E58395094005F58385F082C3E50913F5E1
:101C900009E50813F508DAE1227A10E4FBFCE58295
:101CA00025E0F582E58333F583EB33FBEC33FCEB86
:101CB0009508F5F0EC95094006FCABF0438201DA9B
:101CC000DD22FBC2D530E715D2D5E4C39582F5827B
:101CD000E49583F583E495F0F5F0E49BFBE50B30A8
:101CE000E717B2D5E4C39508F508E49509F509E4CA
:101CF000950AF50AE4950BF50BEB121BE730D513AB
:101D0000FBE4C39582F582E49583F583E495F0F5D1
:101D1000F0E49B22C2D5E58330E70DD2D5E4C3952C
:101D200082F582E49583F583E50930E70BE4C395FA
:101D300008F508E49509F509121C4C30D50BE4C3ED
:101D40009582F582E49583F5832220F71030F61111
:101D50008883A88220F507F6A88375830022F28085
:101D6000F7F022C2D5E58330E70DD2D5E4C39582E2
:101D7000F582E49583F583E50930E70DB2D5E4C338
:101D80009508F508E49509F509121C9930D50BE47E
:101D9000C39582F582E49583F5832200000000005C
:00000001FF
